{
  "contractName": "Like",
  "abi": [
    {
      "inputs": [],
      "name": "isLiked",
      "outputs": [
        {
          "internalType": "bool",
          "name": "",
          "type": "bool"
        }
      ],
      "stateMutability": "view",
      "type": "function",
      "constant": true
    },
    {
      "inputs": [],
      "name": "manageLike",
      "outputs": [],
      "stateMutability": "nonpayable",
      "type": "function"
    },
    {
      "inputs": [],
      "name": "likeStatus",
      "outputs": [
        {
          "internalType": "bool",
          "name": "",
          "type": "bool"
        }
      ],
      "stateMutability": "view",
      "type": "function",
      "constant": true
    }
  ],
  "bytecode": "0x608060405260008060006101000a81548160ff02191690831515021790555034801561002a57600080fd5b506101488061003a6000396000f3fe608060405234801561001057600080fd5b50600436106100415760003560e01c8063061c4bcb1461004657806366e30aec14610064578063a4eb239c1461006e575b600080fd5b61004e61008c565b60405161005b91906100eb565b60405180910390f35b61006c6100a2565b005b6100766100cb565b60405161008391906100eb565b60405180910390f35b60008060009054906101000a900460ff16905090565b60008054906101000a900460ff16156000806101000a81548160ff021916908315150217905550565b60008054906101000a900460ff1681565b6100e581610106565b82525050565b600060208201905061010060008301846100dc565b92915050565b6000811515905091905056fea2646970667358221220c487d632e0510951cedd85ad1610d7158c209c11404288d55ed7f92b387cb50964736f6c63430008000033",
  "immutableReferences": {},
  "source": "// SPDX-License-Identifier: MIT\r\npragma solidity ^0.8.0;\r\n\r\ncontract Like {\r\n  bool public isLiked = false;\r\n\r\n  function manageLike() external {\r\n    isLiked = !isLiked;\r\n  }\r\n\r\n  function likeStatus() external view returns(bool) {\r\n    return isLiked;\r\n  }\r\n}",
  "sourcePath": "E:\\生活\\Columbia University\\2nd semester\\6883 block chain\\project\\test-metamask\\like-system-ethereum-contract\\like-function\\contracts\\Like.sol",
  "compiler": {
    "name": "solc",
    "version": "0.8.0+commit.c7dfd78e.Emscripten.clang"
  },
  "schemaVersion": "3.4.7",
  "updatedAt": "2022-04-30T03:15:40.188Z",
  "networkType": "ethereum",
  "devdoc": {
    "kind": "dev",
    "methods": {},
    "version": 1
  },
  "userdoc": {
    "kind": "user",
    "methods": {},
    "version": 1
  }
}